{
  "_format": "hh-sol-artifact-1",
  "contractName": "BlockTeaseSubscriptionNFT",
  "sourceName": "contracts/Nft.sol",
  "abi": [
    {
      "inputs": [
        {
          "internalType": "address",
          "name": "initialOwner",
          "type": "address"
        }
      ],
      "stateMutability": "nonpayable",
      "type": "constructor"
    },
    {
      "inputs": [
        {
          "internalType": "address",
          "name": "sender",
          "type": "address"
        },
        {
          "internalType": "uint256",
          "name": "balance",
          "type": "uint256"
        },
        {
          "internalType": "uint256",
          "name": "needed",
          "type": "uint256"
        },
        {
          "internalType": "uint256",
          "name": "tokenId",
          "type": "uint256"
        }
      ],
      "name": "ERC1155InsufficientBalance",
      "type": "error"
    },
    {
      "inputs": [
        {
          "internalType": "address",
          "name": "approver",
          "type": "address"
        }
      ],
      "name": "ERC1155InvalidApprover",
      "type": "error"
    },
    {
      "inputs": [
        {
          "internalType": "uint256",
          "name": "idsLength",
          "type": "uint256"
        },
        {
          "internalType": "uint256",
          "name": "valuesLength",
          "type": "uint256"
        }
      ],
      "name": "ERC1155InvalidArrayLength",
      "type": "error"
    },
    {
      "inputs": [
        {
          "internalType": "address",
          "name": "operator",
          "type": "address"
        }
      ],
      "name": "ERC1155InvalidOperator",
      "type": "error"
    },
    {
      "inputs": [
        {
          "internalType": "address",
          "name": "receiver",
          "type": "address"
        }
      ],
      "name": "ERC1155InvalidReceiver",
      "type": "error"
    },
    {
      "inputs": [
        {
          "internalType": "address",
          "name": "sender",
          "type": "address"
        }
      ],
      "name": "ERC1155InvalidSender",
      "type": "error"
    },
    {
      "inputs": [
        {
          "internalType": "address",
          "name": "operator",
          "type": "address"
        },
        {
          "internalType": "address",
          "name": "owner",
          "type": "address"
        }
      ],
      "name": "ERC1155MissingApprovalForAll",
      "type": "error"
    },
    {
      "inputs": [
        {
          "internalType": "address",
          "name": "owner",
          "type": "address"
        }
      ],
      "name": "OwnableInvalidOwner",
      "type": "error"
    },
    {
      "inputs": [
        {
          "internalType": "address",
          "name": "account",
          "type": "address"
        }
      ],
      "name": "OwnableUnauthorizedAccount",
      "type": "error"
    },
    {
      "anonymous": false,
      "inputs": [
        {
          "indexed": true,
          "internalType": "address",
          "name": "account",
          "type": "address"
        },
        {
          "indexed": true,
          "internalType": "address",
          "name": "operator",
          "type": "address"
        },
        {
          "indexed": false,
          "internalType": "bool",
          "name": "approved",
          "type": "bool"
        }
      ],
      "name": "ApprovalForAll",
      "type": "event"
    },
    {
      "anonymous": false,
      "inputs": [
        {
          "indexed": true,
          "internalType": "address",
          "name": "previousOwner",
          "type": "address"
        },
        {
          "indexed": true,
          "internalType": "address",
          "name": "newOwner",
          "type": "address"
        }
      ],
      "name": "OwnershipTransferred",
      "type": "event"
    },
    {
      "anonymous": false,
      "inputs": [
        {
          "indexed": true,
          "internalType": "address",
          "name": "operator",
          "type": "address"
        },
        {
          "indexed": true,
          "internalType": "address",
          "name": "from",
          "type": "address"
        },
        {
          "indexed": true,
          "internalType": "address",
          "name": "to",
          "type": "address"
        },
        {
          "indexed": false,
          "internalType": "uint256[]",
          "name": "ids",
          "type": "uint256[]"
        },
        {
          "indexed": false,
          "internalType": "uint256[]",
          "name": "values",
          "type": "uint256[]"
        }
      ],
      "name": "TransferBatch",
      "type": "event"
    },
    {
      "anonymous": false,
      "inputs": [
        {
          "indexed": true,
          "internalType": "address",
          "name": "operator",
          "type": "address"
        },
        {
          "indexed": true,
          "internalType": "address",
          "name": "from",
          "type": "address"
        },
        {
          "indexed": true,
          "internalType": "address",
          "name": "to",
          "type": "address"
        },
        {
          "indexed": false,
          "internalType": "uint256",
          "name": "id",
          "type": "uint256"
        },
        {
          "indexed": false,
          "internalType": "uint256",
          "name": "value",
          "type": "uint256"
        }
      ],
      "name": "TransferSingle",
      "type": "event"
    },
    {
      "anonymous": false,
      "inputs": [
        {
          "indexed": false,
          "internalType": "string",
          "name": "value",
          "type": "string"
        },
        {
          "indexed": true,
          "internalType": "uint256",
          "name": "id",
          "type": "uint256"
        }
      ],
      "name": "URI",
      "type": "event"
    },
    {
      "inputs": [],
      "name": "SUBSCRIPTION_ID_OFFSET",
      "outputs": [
        {
          "internalType": "uint256",
          "name": "",
          "type": "uint256"
        }
      ],
      "stateMutability": "view",
      "type": "function"
    },
    {
      "inputs": [
        {
          "internalType": "address",
          "name": "account",
          "type": "address"
        },
        {
          "internalType": "uint256",
          "name": "id",
          "type": "uint256"
        }
      ],
      "name": "balanceOf",
      "outputs": [
        {
          "internalType": "uint256",
          "name": "",
          "type": "uint256"
        }
      ],
      "stateMutability": "view",
      "type": "function"
    },
    {
      "inputs": [
        {
          "internalType": "address[]",
          "name": "accounts",
          "type": "address[]"
        },
        {
          "internalType": "uint256[]",
          "name": "ids",
          "type": "uint256[]"
        }
      ],
      "name": "balanceOfBatch",
      "outputs": [
        {
          "internalType": "uint256[]",
          "name": "",
          "type": "uint256[]"
        }
      ],
      "stateMutability": "view",
      "type": "function"
    },
    {
      "inputs": [
        {
          "internalType": "address",
          "name": "account",
          "type": "address"
        },
        {
          "internalType": "uint256",
          "name": "modelId",
          "type": "uint256"
        },
        {
          "internalType": "uint256",
          "name": "amount",
          "type": "uint256"
        }
      ],
      "name": "burn",
      "outputs": [],
      "stateMutability": "nonpayable",
      "type": "function"
    },
    {
      "inputs": [
        {
          "internalType": "address",
          "name": "account",
          "type": "address"
        },
        {
          "internalType": "address",
          "name": "operator",
          "type": "address"
        }
      ],
      "name": "isApprovedForAll",
      "outputs": [
        {
          "internalType": "bool",
          "name": "",
          "type": "bool"
        }
      ],
      "stateMutability": "view",
      "type": "function"
    },
    {
      "inputs": [
        {
          "internalType": "address",
          "name": "account",
          "type": "address"
        },
        {
          "internalType": "uint256",
          "name": "modelId",
          "type": "uint256"
        },
        {
          "internalType": "uint256",
          "name": "amount",
          "type": "uint256"
        }
      ],
      "name": "mint",
      "outputs": [],
      "stateMutability": "nonpayable",
      "type": "function"
    },
    {
      "inputs": [],
      "name": "owner",
      "outputs": [
        {
          "internalType": "address",
          "name": "",
          "type": "address"
        }
      ],
      "stateMutability": "view",
      "type": "function"
    },
    {
      "inputs": [],
      "name": "renounceOwnership",
      "outputs": [],
      "stateMutability": "nonpayable",
      "type": "function"
    },
    {
      "inputs": [
        {
          "internalType": "address",
          "name": "from",
          "type": "address"
        },
        {
          "internalType": "address",
          "name": "to",
          "type": "address"
        },
        {
          "internalType": "uint256[]",
          "name": "ids",
          "type": "uint256[]"
        },
        {
          "internalType": "uint256[]",
          "name": "values",
          "type": "uint256[]"
        },
        {
          "internalType": "bytes",
          "name": "data",
          "type": "bytes"
        }
      ],
      "name": "safeBatchTransferFrom",
      "outputs": [],
      "stateMutability": "nonpayable",
      "type": "function"
    },
    {
      "inputs": [
        {
          "internalType": "address",
          "name": "from",
          "type": "address"
        },
        {
          "internalType": "address",
          "name": "to",
          "type": "address"
        },
        {
          "internalType": "uint256",
          "name": "id",
          "type": "uint256"
        },
        {
          "internalType": "uint256",
          "name": "value",
          "type": "uint256"
        },
        {
          "internalType": "bytes",
          "name": "data",
          "type": "bytes"
        }
      ],
      "name": "safeTransferFrom",
      "outputs": [],
      "stateMutability": "nonpayable",
      "type": "function"
    },
    {
      "inputs": [
        {
          "internalType": "address",
          "name": "operator",
          "type": "address"
        },
        {
          "internalType": "bool",
          "name": "approved",
          "type": "bool"
        }
      ],
      "name": "setApprovalForAll",
      "outputs": [],
      "stateMutability": "nonpayable",
      "type": "function"
    },
    {
      "inputs": [
        {
          "internalType": "string",
          "name": "newURI",
          "type": "string"
        }
      ],
      "name": "setURI",
      "outputs": [],
      "stateMutability": "nonpayable",
      "type": "function"
    },
    {
      "inputs": [],
      "name": "subscriptionIdCounter",
      "outputs": [
        {
          "internalType": "uint256",
          "name": "",
          "type": "uint256"
        }
      ],
      "stateMutability": "view",
      "type": "function"
    },
    {
      "inputs": [
        {
          "internalType": "bytes4",
          "name": "interfaceId",
          "type": "bytes4"
        }
      ],
      "name": "supportsInterface",
      "outputs": [
        {
          "internalType": "bool",
          "name": "",
          "type": "bool"
        }
      ],
      "stateMutability": "view",
      "type": "function"
    },
    {
      "inputs": [
        {
          "internalType": "address",
          "name": "newOwner",
          "type": "address"
        }
      ],
      "name": "transferOwnership",
      "outputs": [],
      "stateMutability": "nonpayable",
      "type": "function"
    },
    {
      "inputs": [
        {
          "internalType": "uint256",
          "name": "",
          "type": "uint256"
        }
      ],
      "name": "uri",
      "outputs": [
        {
          "internalType": "string",
          "name": "",
          "type": "string"
        }
      ],
      "stateMutability": "view",
      "type": "function"
    }
  ],
  "bytecode": "0x60806040523480156200001157600080fd5b5060405162002ea038038062002ea083398181016040528101906200003791906200025b565b806040518060400160405280600381526020017f55524900000000000000000000000000000000000000000000000000000000008152506200007f816200011660201b60201c565b50600073ffffffffffffffffffffffffffffffffffffffff168173ffffffffffffffffffffffffffffffffffffffff1603620000f55760006040517f1e4fbdf7000000000000000000000000000000000000000000000000000000008152600401620000ec91906200029e565b60405180910390fd5b62000106816200012b60201b60201c565b506001600481905550506200061c565b806002908162000127919062000535565b5050565b6000600360009054906101000a900473ffffffffffffffffffffffffffffffffffffffff16905081600360006101000a81548173ffffffffffffffffffffffffffffffffffffffff021916908373ffffffffffffffffffffffffffffffffffffffff1602179055508173ffffffffffffffffffffffffffffffffffffffff168173ffffffffffffffffffffffffffffffffffffffff167f8be0079c531659141344cd1fd0a4f28419497f9722a3daafe3b4186f6b6457e060405160405180910390a35050565b600080fd5b600073ffffffffffffffffffffffffffffffffffffffff82169050919050565b60006200022382620001f6565b9050919050565b620002358162000216565b81146200024157600080fd5b50565b60008151905062000255816200022a565b92915050565b600060208284031215620002745762000273620001f1565b5b6000620002848482850162000244565b91505092915050565b620002988162000216565b82525050565b6000602082019050620002b560008301846200028d565b92915050565b600081519050919050565b7f4e487b7100000000000000000000000000000000000000000000000000000000600052604160045260246000fd5b7f4e487b7100000000000000000000000000000000000000000000000000000000600052602260045260246000fd5b600060028204905060018216806200033d57607f821691505b602082108103620003535762000352620002f5565b5b50919050565b60008190508160005260206000209050919050565b60006020601f8301049050919050565b600082821b905092915050565b600060088302620003bd7fffffffffffffffffffffffffffffffffffffffffffffffffffffffffffffffff826200037e565b620003c986836200037e565b95508019841693508086168417925050509392505050565b6000819050919050565b6000819050919050565b600062000416620004106200040a84620003e1565b620003eb565b620003e1565b9050919050565b6000819050919050565b6200043283620003f5565b6200044a62000441826200041d565b8484546200038b565b825550505050565b600090565b6200046162000452565b6200046e81848462000427565b505050565b5b8181101562000496576200048a60008262000457565b60018101905062000474565b5050565b601f821115620004e557620004af8162000359565b620004ba846200036e565b81016020851015620004ca578190505b620004e2620004d9856200036e565b83018262000473565b50505b505050565b600082821c905092915050565b60006200050a60001984600802620004ea565b1980831691505092915050565b6000620005258383620004f7565b9150826002028217905092915050565b6200054082620002bb565b67ffffffffffffffff8111156200055c576200055b620002c6565b5b62000568825462000324565b620005758282856200049a565b600060209050601f831160018114620005ad576000841562000598578287015190505b620005a4858262000517565b86555062000614565b601f198416620005bd8662000359565b60005b82811015620005e757848901518255600182019150602085019450602081019050620005c0565b8683101562000607578489015162000603601f891682620004f7565b8355505b6001600288020188555050505b505050505050565b612874806200062c6000396000f3fe608060405234801561001057600080fd5b50600436106100ff5760003560e01c8063715018a611610097578063e985e9c511610066578063e985e9c514610298578063f242432a146102c8578063f2fde38b146102e4578063f5298aca14610300576100ff565b8063715018a614610236578063743686f0146102405780638da5cb5b1461025e578063a22cb4651461027c576100ff565b8063156e29f6116100d3578063156e29f6146101b05780632eb2c2d6146101cc5780634e1273f4146101e857806355f9e3f514610218576100ff565b8062fdd58e1461010457806301ffc9a71461013457806302fe5305146101645780630e89341c14610180575b600080fd5b61011e6004803603810190610119919061189d565b61031c565b60405161012b91906118ec565b60405180910390f35b61014e6004803603810190610149919061195f565b610376565b60405161015b91906119a7565b60405180910390f35b61017e60048036038101906101799190611b08565b610458565b005b61019a60048036038101906101959190611b51565b61046c565b6040516101a79190611bfd565b60405180910390f35b6101ca60048036038101906101c59190611c1f565b610500565b005b6101e660048036038101906101e19190611ddb565b610538565b005b61020260048036038101906101fd9190611f6d565b6105e0565b60405161020f91906120a3565b60405180910390f35b6102206106ef565b60405161022d91906118ec565b60405180910390f35b61023e6106f5565b005b610248610709565b60405161025591906118ec565b60405180910390f35b610266610712565b60405161027391906120d4565b60405180910390f35b6102966004803603810190610291919061211b565b61073c565b005b6102b260048036038101906102ad919061215b565b610752565b6040516102bf91906119a7565b60405180910390f35b6102e260048036038101906102dd919061219b565b610766565b005b6102fe60048036038101906102f99190612232565b61080e565b005b61031a60048036038101906103159190611c1f565b610894565b005b600080600083815260200190815260200160002060008473ffffffffffffffffffffffffffffffffffffffff1673ffffffffffffffffffffffffffffffffffffffff16815260200190815260200160002054905092915050565b60007fd9b67a26000000000000000000000000000000000000000000000000000000007bffffffffffffffffffffffffffffffffffffffffffffffffffffffff1916827bffffffffffffffffffffffffffffffffffffffffffffffffffffffff1916148061044157507f0e89341c000000000000000000000000000000000000000000000000000000007bffffffffffffffffffffffffffffffffffffffffffffffffffffffff1916827bffffffffffffffffffffffffffffffffffffffffffffffffffffffff1916145b806104515750610450826108bc565b5b9050919050565b610460610926565b610469816109ad565b50565b60606002805461047b9061228e565b80601f01602080910402602001604051908101604052809291908181526020018280546104a79061228e565b80156104f45780601f106104c9576101008083540402835291602001916104f4565b820191906000526020600020905b8154815290600101906020018083116104d757829003601f168201915b50505050509050919050565b610508610926565b6105338364e8d4a510008461051d91906122ee565b83604051806020016040528060008152506109c0565b505050565b6000610542610a59565b90508073ffffffffffffffffffffffffffffffffffffffff168673ffffffffffffffffffffffffffffffffffffffff161415801561058757506105858682610752565b155b156105cb5780866040517fe237d9220000000000000000000000000000000000000000000000000000000081526004016105c2929190612322565b60405180910390fd5b6105d88686868686610a61565b505050505050565b6060815183511461062c57815183516040517f5b05999100000000000000000000000000000000000000000000000000000000815260040161062392919061234b565b60405180910390fd5b6000835167ffffffffffffffff811115610649576106486119dd565b5b6040519080825280602002602001820160405280156106775781602001602082028036833780820191505090505b50905060005b84518110156106e4576106b461069c8287610b5990919063ffffffff16565b6106af8387610b6d90919063ffffffff16565b61031c565b8282815181106106c7576106c6612374565b5b602002602001018181525050806106dd906123a3565b905061067d565b508091505092915050565b60045481565b6106fd610926565b6107076000610b81565b565b64e8d4a5100081565b6000600360009054906101000a900473ffffffffffffffffffffffffffffffffffffffff16905090565b61074e610747610a59565b8383610c47565b5050565b600061075e8383610db7565b905092915050565b6000610770610a59565b90508073ffffffffffffffffffffffffffffffffffffffff168673ffffffffffffffffffffffffffffffffffffffff16141580156107b557506107b38682610752565b155b156107f95780866040517fe237d9220000000000000000000000000000000000000000000000000000000081526004016107f0929190612322565b60405180910390fd5b6108068686868686610e4b565b505050505050565b610816610926565b600073ffffffffffffffffffffffffffffffffffffffff168173ffffffffffffffffffffffffffffffffffffffff16036108885760006040517f1e4fbdf700000000000000000000000000000000000000000000000000000000815260040161087f91906120d4565b60405180910390fd5b61089181610b81565b50565b61089c610926565b6108b78364e8d4a51000846108b191906122ee565b83610f56565b505050565b60007f01ffc9a7000000000000000000000000000000000000000000000000000000007bffffffffffffffffffffffffffffffffffffffffffffffffffffffff1916827bffffffffffffffffffffffffffffffffffffffffffffffffffffffff1916149050919050565b61092e610a59565b73ffffffffffffffffffffffffffffffffffffffff1661094c610712565b73ffffffffffffffffffffffffffffffffffffffff16146109ab5761096f610a59565b6040517f118cdaa70000000000000000000000000000000000000000000000000000000081526004016109a291906120d4565b60405180910390fd5b565b80600290816109bc9190612597565b5050565b600073ffffffffffffffffffffffffffffffffffffffff168473ffffffffffffffffffffffffffffffffffffffff1603610a325760006040517f57f447ce000000000000000000000000000000000000000000000000000000008152600401610a2991906120d4565b60405180910390fd5b600080610a3f8585610ffd565b91509150610a5160008784848761102d565b505050505050565b600033905090565b600073ffffffffffffffffffffffffffffffffffffffff168473ffffffffffffffffffffffffffffffffffffffff1603610ad35760006040517f57f447ce000000000000000000000000000000000000000000000000000000008152600401610aca91906120d4565b60405180910390fd5b600073ffffffffffffffffffffffffffffffffffffffff168573ffffffffffffffffffffffffffffffffffffffff1603610b455760006040517f01a83514000000000000000000000000000000000000000000000000000000008152600401610b3c91906120d4565b60405180910390fd5b610b52858585858561102d565b5050505050565b600060208202602084010151905092915050565b600060208202602084010151905092915050565b6000600360009054906101000a900473ffffffffffffffffffffffffffffffffffffffff16905081600360006101000a81548173ffffffffffffffffffffffffffffffffffffffff021916908373ffffffffffffffffffffffffffffffffffffffff1602179055508173ffffffffffffffffffffffffffffffffffffffff168173ffffffffffffffffffffffffffffffffffffffff167f8be0079c531659141344cd1fd0a4f28419497f9722a3daafe3b4186f6b6457e060405160405180910390a35050565b600073ffffffffffffffffffffffffffffffffffffffff168273ffffffffffffffffffffffffffffffffffffffff1603610cb95760006040517fced3e100000000000000000000000000000000000000000000000000000000008152600401610cb091906120d4565b60405180910390fd5b80600160008573ffffffffffffffffffffffffffffffffffffffff1673ffffffffffffffffffffffffffffffffffffffff16815260200190815260200160002060008473ffffffffffffffffffffffffffffffffffffffff1673ffffffffffffffffffffffffffffffffffffffff16815260200190815260200160002060006101000a81548160ff0219169083151502179055508173ffffffffffffffffffffffffffffffffffffffff168373ffffffffffffffffffffffffffffffffffffffff167f17307eab39ab6107e8899845ad3d59bd9653f200f220920489ca2b5937696c3183604051610daa91906119a7565b60405180910390a3505050565b6000600160008473ffffffffffffffffffffffffffffffffffffffff1673ffffffffffffffffffffffffffffffffffffffff16815260200190815260200160002060008373ffffffffffffffffffffffffffffffffffffffff1673ffffffffffffffffffffffffffffffffffffffff16815260200190815260200160002060009054906101000a900460ff16905092915050565b600073ffffffffffffffffffffffffffffffffffffffff168473ffffffffffffffffffffffffffffffffffffffff1603610ebd5760006040517f57f447ce000000000000000000000000000000000000000000000000000000008152600401610eb491906120d4565b60405180910390fd5b600073ffffffffffffffffffffffffffffffffffffffff168573ffffffffffffffffffffffffffffffffffffffff1603610f2f5760006040517f01a83514000000000000000000000000000000000000000000000000000000008152600401610f2691906120d4565b60405180910390fd5b600080610f3c8585610ffd565b91509150610f4d878784848761102d565b50505050505050565b600073ffffffffffffffffffffffffffffffffffffffff168373ffffffffffffffffffffffffffffffffffffffff1603610fc85760006040517f01a83514000000000000000000000000000000000000000000000000000000008152600401610fbf91906120d4565b60405180910390fd5b600080610fd58484610ffd565b91509150610ff685600084846040518060200160405280600081525061102d565b5050505050565b60608060405191506001825283602083015260408201905060018152826020820152604081016040529250929050565b611039858585856110df565b600073ffffffffffffffffffffffffffffffffffffffff168473ffffffffffffffffffffffffffffffffffffffff16146110d8576000611077610a59565b905060018451036110c7576000611098600086610b6d90919063ffffffff16565b905060006110b0600086610b6d90919063ffffffff16565b90506110c083898985858961148d565b50506110d6565b6110d5818787878787611641565b5b505b5050505050565b805182511461112957815181516040517f5b05999100000000000000000000000000000000000000000000000000000000815260040161112092919061234b565b60405180910390fd5b6000611133610a59565b905060005b83518110156113485760006111568286610b6d90919063ffffffff16565b9050600061116d8386610b6d90919063ffffffff16565b9050600073ffffffffffffffffffffffffffffffffffffffff168873ffffffffffffffffffffffffffffffffffffffff161461129a57600080600084815260200190815260200160002060008a73ffffffffffffffffffffffffffffffffffffffff1673ffffffffffffffffffffffffffffffffffffffff1681526020019081526020016000205490508181101561124257888183856040517f03dee4c50000000000000000000000000000000000000000000000000000000081526004016112399493929190612669565b60405180910390fd5b81810360008085815260200190815260200160002060008b73ffffffffffffffffffffffffffffffffffffffff1673ffffffffffffffffffffffffffffffffffffffff16815260200190815260200160002081905550505b600073ffffffffffffffffffffffffffffffffffffffff168773ffffffffffffffffffffffffffffffffffffffff1614611335578060008084815260200190815260200160002060008973ffffffffffffffffffffffffffffffffffffffff1673ffffffffffffffffffffffffffffffffffffffff168152602001908152602001600020600082825461132d91906122ee565b925050819055505b505080611341906123a3565b9050611138565b506001835103611407576000611368600085610b6d90919063ffffffff16565b90506000611380600085610b6d90919063ffffffff16565b90508573ffffffffffffffffffffffffffffffffffffffff168773ffffffffffffffffffffffffffffffffffffffff168473ffffffffffffffffffffffffffffffffffffffff167fc3d58168c5ae7397731d063d5bbf3d657854427343f4c083240f7aacaa2d0f6285856040516113f892919061234b565b60405180910390a45050611486565b8373ffffffffffffffffffffffffffffffffffffffff168573ffffffffffffffffffffffffffffffffffffffff168273ffffffffffffffffffffffffffffffffffffffff167f4a39dc06d4c0dbc64b70af90fd698a233a518aa5d07e595d983b8c0526c8f7fb868660405161147d9291906126ae565b60405180910390a45b5050505050565b60008473ffffffffffffffffffffffffffffffffffffffff163b1115611639578373ffffffffffffffffffffffffffffffffffffffff1663f23a6e6187878686866040518663ffffffff1660e01b81526004016114ee95949392919061273a565b6020604051808303816000875af192505050801561152a57506040513d601f19601f8201168201806040525081019061152791906127a9565b60015b6115ae573d806000811461155a576040519150601f19603f3d011682016040523d82523d6000602084013e61155f565b606091505b5060008151036115a657846040517f57f447ce00000000000000000000000000000000000000000000000000000000815260040161159d91906120d4565b60405180910390fd5b805181602001fd5b63f23a6e6160e01b7bffffffffffffffffffffffffffffffffffffffffffffffffffffffff1916817bffffffffffffffffffffffffffffffffffffffffffffffffffffffff19161461163757846040517f57f447ce00000000000000000000000000000000000000000000000000000000815260040161162e91906120d4565b60405180910390fd5b505b505050505050565b60008473ffffffffffffffffffffffffffffffffffffffff163b11156117ed578373ffffffffffffffffffffffffffffffffffffffff1663bc197c8187878686866040518663ffffffff1660e01b81526004016116a29594939291906127d6565b6020604051808303816000875af19250505080156116de57506040513d601f19601f820116820180604052508101906116db91906127a9565b60015b611762573d806000811461170e576040519150601f19603f3d011682016040523d82523d6000602084013e611713565b606091505b50600081510361175a57846040517f57f447ce00000000000000000000000000000000000000000000000000000000815260040161175191906120d4565b60405180910390fd5b805181602001fd5b63bc197c8160e01b7bffffffffffffffffffffffffffffffffffffffffffffffffffffffff1916817bffffffffffffffffffffffffffffffffffffffffffffffffffffffff1916146117eb57846040517f57f447ce0000000000000000000000000000000000000000000000000000000081526004016117e291906120d4565b60405180910390fd5b505b505050505050565b6000604051905090565b600080fd5b600080fd5b600073ffffffffffffffffffffffffffffffffffffffff82169050919050565b600061183482611809565b9050919050565b61184481611829565b811461184f57600080fd5b50565b6000813590506118618161183b565b92915050565b6000819050919050565b61187a81611867565b811461188557600080fd5b50565b60008135905061189781611871565b92915050565b600080604083850312156118b4576118b36117ff565b5b60006118c285828601611852565b92505060206118d385828601611888565b9150509250929050565b6118e681611867565b82525050565b600060208201905061190160008301846118dd565b92915050565b60007fffffffff0000000000000000000000000000000000000000000000000000000082169050919050565b61193c81611907565b811461194757600080fd5b50565b60008135905061195981611933565b92915050565b600060208284031215611975576119746117ff565b5b60006119838482850161194a565b91505092915050565b60008115159050919050565b6119a18161198c565b82525050565b60006020820190506119bc6000830184611998565b92915050565b600080fd5b600080fd5b6000601f19601f8301169050919050565b7f4e487b7100000000000000000000000000000000000000000000000000000000600052604160045260246000fd5b611a15826119cc565b810181811067ffffffffffffffff82111715611a3457611a336119dd565b5b80604052505050565b6000611a476117f5565b9050611a538282611a0c565b919050565b600067ffffffffffffffff821115611a7357611a726119dd565b5b611a7c826119cc565b9050602081019050919050565b82818337600083830152505050565b6000611aab611aa684611a58565b611a3d565b905082815260208101848484011115611ac757611ac66119c7565b5b611ad2848285611a89565b509392505050565b600082601f830112611aef57611aee6119c2565b5b8135611aff848260208601611a98565b91505092915050565b600060208284031215611b1e57611b1d6117ff565b5b600082013567ffffffffffffffff811115611b3c57611b3b611804565b5b611b4884828501611ada565b91505092915050565b600060208284031215611b6757611b666117ff565b5b6000611b7584828501611888565b91505092915050565b600081519050919050565b600082825260208201905092915050565b60005b83811015611bb8578082015181840152602081019050611b9d565b60008484015250505050565b6000611bcf82611b7e565b611bd98185611b89565b9350611be9818560208601611b9a565b611bf2816119cc565b840191505092915050565b60006020820190508181036000830152611c178184611bc4565b905092915050565b600080600060608486031215611c3857611c376117ff565b5b6000611c4686828701611852565b9350506020611c5786828701611888565b9250506040611c6886828701611888565b9150509250925092565b600067ffffffffffffffff821115611c8d57611c8c6119dd565b5b602082029050602081019050919050565b600080fd5b6000611cb6611cb184611c72565b611a3d565b90508083825260208201905060208402830185811115611cd957611cd8611c9e565b5b835b81811015611d025780611cee8882611888565b845260208401935050602081019050611cdb565b5050509392505050565b600082601f830112611d2157611d206119c2565b5b8135611d31848260208601611ca3565b91505092915050565b600067ffffffffffffffff821115611d5557611d546119dd565b5b611d5e826119cc565b9050602081019050919050565b6000611d7e611d7984611d3a565b611a3d565b905082815260208101848484011115611d9a57611d996119c7565b5b611da5848285611a89565b509392505050565b600082601f830112611dc257611dc16119c2565b5b8135611dd2848260208601611d6b565b91505092915050565b600080600080600060a08688031215611df757611df66117ff565b5b6000611e0588828901611852565b9550506020611e1688828901611852565b945050604086013567ffffffffffffffff811115611e3757611e36611804565b5b611e4388828901611d0c565b935050606086013567ffffffffffffffff811115611e6457611e63611804565b5b611e7088828901611d0c565b925050608086013567ffffffffffffffff811115611e9157611e90611804565b5b611e9d88828901611dad565b9150509295509295909350565b600067ffffffffffffffff821115611ec557611ec46119dd565b5b602082029050602081019050919050565b6000611ee9611ee484611eaa565b611a3d565b90508083825260208201905060208402830185811115611f0c57611f0b611c9e565b5b835b81811015611f355780611f218882611852565b845260208401935050602081019050611f0e565b5050509392505050565b600082601f830112611f5457611f536119c2565b5b8135611f64848260208601611ed6565b91505092915050565b60008060408385031215611f8457611f836117ff565b5b600083013567ffffffffffffffff811115611fa257611fa1611804565b5b611fae85828601611f3f565b925050602083013567ffffffffffffffff811115611fcf57611fce611804565b5b611fdb85828601611d0c565b9150509250929050565b600081519050919050565b600082825260208201905092915050565b6000819050602082019050919050565b61201a81611867565b82525050565b600061202c8383612011565b60208301905092915050565b6000602082019050919050565b600061205082611fe5565b61205a8185611ff0565b935061206583612001565b8060005b8381101561209657815161207d8882612020565b975061208883612038565b925050600181019050612069565b5085935050505092915050565b600060208201905081810360008301526120bd8184612045565b905092915050565b6120ce81611829565b82525050565b60006020820190506120e960008301846120c5565b92915050565b6120f88161198c565b811461210357600080fd5b50565b600081359050612115816120ef565b92915050565b60008060408385031215612132576121316117ff565b5b600061214085828601611852565b925050602061215185828601612106565b9150509250929050565b60008060408385031215612172576121716117ff565b5b600061218085828601611852565b925050602061219185828601611852565b9150509250929050565b600080600080600060a086880312156121b7576121b66117ff565b5b60006121c588828901611852565b95505060206121d688828901611852565b94505060406121e788828901611888565b93505060606121f888828901611888565b925050608086013567ffffffffffffffff81111561221957612218611804565b5b61222588828901611dad565b9150509295509295909350565b600060208284031215612248576122476117ff565b5b600061225684828501611852565b91505092915050565b7f4e487b7100000000000000000000000000000000000000000000000000000000600052602260045260246000fd5b600060028204905060018216806122a657607f821691505b6020821081036122b9576122b861225f565b5b50919050565b7f4e487b7100000000000000000000000000000000000000000000000000000000600052601160045260246000fd5b60006122f982611867565b915061230483611867565b925082820190508082111561231c5761231b6122bf565b5b92915050565b600060408201905061233760008301856120c5565b61234460208301846120c5565b9392505050565b600060408201905061236060008301856118dd565b61236d60208301846118dd565b9392505050565b7f4e487b7100000000000000000000000000000000000000000000000000000000600052603260045260246000fd5b60006123ae82611867565b91507fffffffffffffffffffffffffffffffffffffffffffffffffffffffffffffffff82036123e0576123df6122bf565b5b600182019050919050565b60008190508160005260206000209050919050565b60006020601f8301049050919050565b600082821b905092915050565b60006008830261244d7fffffffffffffffffffffffffffffffffffffffffffffffffffffffffffffffff82612410565b6124578683612410565b95508019841693508086168417925050509392505050565b6000819050919050565b600061249461248f61248a84611867565b61246f565b611867565b9050919050565b6000819050919050565b6124ae83612479565b6124c26124ba8261249b565b84845461241d565b825550505050565b600090565b6124d76124ca565b6124e28184846124a5565b505050565b5b81811015612506576124fb6000826124cf565b6001810190506124e8565b5050565b601f82111561254b5761251c816123eb565b61252584612400565b81016020851015612534578190505b61254861254085612400565b8301826124e7565b50505b505050565b600082821c905092915050565b600061256e60001984600802612550565b1980831691505092915050565b6000612587838361255d565b9150826002028217905092915050565b6125a082611b7e565b67ffffffffffffffff8111156125b9576125b86119dd565b5b6125c3825461228e565b6125ce82828561250a565b600060209050601f83116001811461260157600084156125ef578287015190505b6125f9858261257b565b865550612661565b601f19841661260f866123eb565b60005b8281101561263757848901518255600182019150602085019450602081019050612612565b868310156126545784890151612650601f89168261255d565b8355505b6001600288020188555050505b505050505050565b600060808201905061267e60008301876120c5565b61268b60208301866118dd565b61269860408301856118dd565b6126a560608301846118dd565b95945050505050565b600060408201905081810360008301526126c88185612045565b905081810360208301526126dc8184612045565b90509392505050565b600081519050919050565b600082825260208201905092915050565b600061270c826126e5565b61271681856126f0565b9350612726818560208601611b9a565b61272f816119cc565b840191505092915050565b600060a08201905061274f60008301886120c5565b61275c60208301876120c5565b61276960408301866118dd565b61277660608301856118dd565b81810360808301526127888184612701565b90509695505050505050565b6000815190506127a381611933565b92915050565b6000602082840312156127bf576127be6117ff565b5b60006127cd84828501612794565b91505092915050565b600060a0820190506127eb60008301886120c5565b6127f860208301876120c5565b818103604083015261280a8186612045565b9050818103606083015261281e8185612045565b905081810360808301526128328184612701565b9050969550505050505056fea2646970667358221220da0d7bb591e6ceba41496ffbaf333b1e008805de1a9f15f7b946323fc2b8d04164736f6c63430008140033",
  "linkReferences": {},
  "deployedLinkReferences": {}
}