{
  "_format": "hh-sol-artifact-1",
  "contractName": "BlockTeaseMarketplace",
  "sourceName": "contracts/Marketplace.sol",
  "abi": [
    {
      "inputs": [
        {
          "internalType": "address",
          "name": "initialOwner",
          "type": "address"
        },
        {
          "internalType": "address",
          "name": "_nftContract",
          "type": "address"
        }
      ],
      "stateMutability": "nonpayable",
      "type": "constructor"
    },
    {
      "inputs": [
        {
          "internalType": "address",
          "name": "owner",
          "type": "address"
        }
      ],
      "name": "OwnableInvalidOwner",
      "type": "error"
    },
    {
      "inputs": [
        {
          "internalType": "address",
          "name": "account",
          "type": "address"
        }
      ],
      "name": "OwnableUnauthorizedAccount",
      "type": "error"
    },
    {
      "anonymous": false,
      "inputs": [
        {
          "indexed": true,
          "internalType": "address",
          "name": "previousOwner",
          "type": "address"
        },
        {
          "indexed": true,
          "internalType": "address",
          "name": "newOwner",
          "type": "address"
        }
      ],
      "name": "OwnershipTransferred",
      "type": "event"
    },
    {
      "anonymous": false,
      "inputs": [
        {
          "indexed": true,
          "internalType": "uint256",
          "name": "subscriptionId",
          "type": "uint256"
        },
        {
          "indexed": false,
          "internalType": "uint256",
          "name": "price",
          "type": "uint256"
        }
      ],
      "name": "SubscriptionListed",
      "type": "event"
    },
    {
      "anonymous": false,
      "inputs": [
        {
          "indexed": true,
          "internalType": "address",
          "name": "buyer",
          "type": "address"
        },
        {
          "indexed": false,
          "internalType": "uint256",
          "name": "subscriptionId",
          "type": "uint256"
        }
      ],
      "name": "SubscriptionPurchased",
      "type": "event"
    },
    {
      "inputs": [],
      "name": "SUBSCRIPTION_ID_OFFSET",
      "outputs": [
        {
          "internalType": "uint256",
          "name": "",
          "type": "uint256"
        }
      ],
      "stateMutability": "view",
      "type": "function"
    },
    {
      "inputs": [
        {
          "internalType": "uint256",
          "name": "modelId",
          "type": "uint256"
        },
        {
          "internalType": "uint256",
          "name": "price",
          "type": "uint256"
        }
      ],
      "name": "listSubscription",
      "outputs": [],
      "stateMutability": "nonpayable",
      "type": "function"
    },
    {
      "inputs": [],
      "name": "nftContract",
      "outputs": [
        {
          "internalType": "contract IERC1155",
          "name": "",
          "type": "address"
        }
      ],
      "stateMutability": "view",
      "type": "function"
    },
    {
      "inputs": [],
      "name": "owner",
      "outputs": [
        {
          "internalType": "address",
          "name": "",
          "type": "address"
        }
      ],
      "stateMutability": "view",
      "type": "function"
    },
    {
      "inputs": [
        {
          "internalType": "uint256",
          "name": "subscriptionId",
          "type": "uint256"
        }
      ],
      "name": "purchaseSubscription",
      "outputs": [],
      "stateMutability": "payable",
      "type": "function"
    },
    {
      "inputs": [],
      "name": "renounceOwnership",
      "outputs": [],
      "stateMutability": "nonpayable",
      "type": "function"
    },
    {
      "inputs": [
        {
          "internalType": "uint256",
          "name": "",
          "type": "uint256"
        }
      ],
      "name": "subscriptionPrices",
      "outputs": [
        {
          "internalType": "uint256",
          "name": "",
          "type": "uint256"
        }
      ],
      "stateMutability": "view",
      "type": "function"
    },
    {
      "inputs": [
        {
          "internalType": "address",
          "name": "newOwner",
          "type": "address"
        }
      ],
      "name": "transferOwnership",
      "outputs": [],
      "stateMutability": "nonpayable",
      "type": "function"
    },
    {
      "inputs": [
        {
          "internalType": "uint256",
          "name": "amount",
          "type": "uint256"
        }
      ],
      "name": "withdrawFunds",
      "outputs": [],
      "stateMutability": "nonpayable",
      "type": "function"
    }
  ],
  "bytecode": "0x60806040523480156200001157600080fd5b5060405162000daa38038062000daa833981810160405281019062000037919062000236565b81600073ffffffffffffffffffffffffffffffffffffffff168173ffffffffffffffffffffffffffffffffffffffff1603620000ad5760006040517f1e4fbdf7000000000000000000000000000000000000000000000000000000008152600401620000a491906200028e565b60405180910390fd5b620000be816200010860201b60201c565b5080600160006101000a81548173ffffffffffffffffffffffffffffffffffffffff021916908373ffffffffffffffffffffffffffffffffffffffff1602179055505050620002ab565b60008060009054906101000a900473ffffffffffffffffffffffffffffffffffffffff169050816000806101000a81548173ffffffffffffffffffffffffffffffffffffffff021916908373ffffffffffffffffffffffffffffffffffffffff1602179055508173ffffffffffffffffffffffffffffffffffffffff168173ffffffffffffffffffffffffffffffffffffffff167f8be0079c531659141344cd1fd0a4f28419497f9722a3daafe3b4186f6b6457e060405160405180910390a35050565b600080fd5b600073ffffffffffffffffffffffffffffffffffffffff82169050919050565b6000620001fe82620001d1565b9050919050565b6200021081620001f1565b81146200021c57600080fd5b50565b600081519050620002308162000205565b92915050565b6000806040838503121562000250576200024f620001cc565b5b600062000260858286016200021f565b925050602062000273858286016200021f565b9150509250929050565b6200028881620001f1565b82525050565b6000602082019050620002a560008301846200027d565b92915050565b610aef80620002bb6000396000f3fe6080604052600436106100865760003560e01c80638da5cb5b116100595780638da5cb5b1461011f5780638edf72f51461014a578063cabec0e014610166578063d56d229d146101a3578063f2fde38b146101ce57610086565b8063155dd5ee1461008b578063715018a6146100b457806372065e99146100cb578063743686f0146100f4575b600080fd5b34801561009757600080fd5b506100b260048036038101906100ad91906106dd565b6101f7565b005b3480156100c057600080fd5b506100c9610250565b005b3480156100d757600080fd5b506100f260048036038101906100ed919061070a565b610264565b005b34801561010057600080fd5b506101096102d6565b6040516101169190610759565b60405180910390f35b34801561012b57600080fd5b506101346102df565b60405161014191906107b5565b60405180910390f35b610164600480360381019061015f91906106dd565b610308565b005b34801561017257600080fd5b5061018d600480360381019061018891906106dd565b61048b565b60405161019a9190610759565b60405180910390f35b3480156101af57600080fd5b506101b86104a3565b6040516101c5919061082f565b60405180910390f35b3480156101da57600080fd5b506101f560048036038101906101f09190610876565b6104c9565b005b6101ff61054f565b6102076102df565b73ffffffffffffffffffffffffffffffffffffffff166108fc829081150290604051600060405180830381858888f1935050505015801561024c573d6000803e3d6000fd5b5050565b61025861054f565b61026260006105d6565b565b61026c61054f565b600064e8d4a510008361027f91906108d2565b9050816002600083815260200190815260200160002081905550807f571d96ac09fd898efc3be0b58028cac730fa2644b715b9a3a8bb9d40f1ccbd31836040516102c99190610759565b60405180910390a2505050565b64e8d4a5100081565b60008060009054906101000a900473ffffffffffffffffffffffffffffffffffffffff16905090565b60006002600083815260200190815260200160002054905060008111610363576040517f08c379a000000000000000000000000000000000000000000000000000000000815260040161035a90610963565b60405180910390fd5b8034146103a5576040517f08c379a000000000000000000000000000000000000000000000000000000000815260040161039c906109cf565b60405180910390fd5b600160009054906101000a900473ffffffffffffffffffffffffffffffffffffffff1673ffffffffffffffffffffffffffffffffffffffff1663f242432a30338560016040518563ffffffff1660e01b81526004016104079493929190610a61565b600060405180830381600087803b15801561042157600080fd5b505af1158015610435573d6000803e3d6000fd5b505050503373ffffffffffffffffffffffffffffffffffffffff167f799bcc5d05a0d37fc0012dba6e154d1353b3b36495bf076daf88f7b1428a3f818360405161047f9190610759565b60405180910390a25050565b60026020528060005260406000206000915090505481565b600160009054906101000a900473ffffffffffffffffffffffffffffffffffffffff1681565b6104d161054f565b600073ffffffffffffffffffffffffffffffffffffffff168173ffffffffffffffffffffffffffffffffffffffff16036105435760006040517f1e4fbdf700000000000000000000000000000000000000000000000000000000815260040161053a91906107b5565b60405180910390fd5b61054c816105d6565b50565b61055761069a565b73ffffffffffffffffffffffffffffffffffffffff166105756102df565b73ffffffffffffffffffffffffffffffffffffffff16146105d45761059861069a565b6040517f118cdaa70000000000000000000000000000000000000000000000000000000081526004016105cb91906107b5565b60405180910390fd5b565b60008060009054906101000a900473ffffffffffffffffffffffffffffffffffffffff169050816000806101000a81548173ffffffffffffffffffffffffffffffffffffffff021916908373ffffffffffffffffffffffffffffffffffffffff1602179055508173ffffffffffffffffffffffffffffffffffffffff168173ffffffffffffffffffffffffffffffffffffffff167f8be0079c531659141344cd1fd0a4f28419497f9722a3daafe3b4186f6b6457e060405160405180910390a35050565b600033905090565b600080fd5b6000819050919050565b6106ba816106a7565b81146106c557600080fd5b50565b6000813590506106d7816106b1565b92915050565b6000602082840312156106f3576106f26106a2565b5b6000610701848285016106c8565b91505092915050565b60008060408385031215610721576107206106a2565b5b600061072f858286016106c8565b9250506020610740858286016106c8565b9150509250929050565b610753816106a7565b82525050565b600060208201905061076e600083018461074a565b92915050565b600073ffffffffffffffffffffffffffffffffffffffff82169050919050565b600061079f82610774565b9050919050565b6107af81610794565b82525050565b60006020820190506107ca60008301846107a6565b92915050565b6000819050919050565b60006107f56107f06107eb84610774565b6107d0565b610774565b9050919050565b6000610807826107da565b9050919050565b6000610819826107fc565b9050919050565b6108298161080e565b82525050565b60006020820190506108446000830184610820565b92915050565b61085381610794565b811461085e57600080fd5b50565b6000813590506108708161084a565b92915050565b60006020828403121561088c5761088b6106a2565b5b600061089a84828501610861565b91505092915050565b7f4e487b7100000000000000000000000000000000000000000000000000000000600052601160045260246000fd5b60006108dd826106a7565b91506108e8836106a7565b9250828201905080821115610900576108ff6108a3565b5b92915050565b600082825260208201905092915050565b7f537562736372697074696f6e206e6f74206c6973746564000000000000000000600082015250565b600061094d601783610906565b915061095882610917565b602082019050919050565b6000602082019050818103600083015261097c81610940565b9050919050565b7f496e636f7272656374207061796d656e7420616d6f756e740000000000000000600082015250565b60006109b9601883610906565b91506109c482610983565b602082019050919050565b600060208201905081810360008301526109e8816109ac565b9050919050565b6000819050919050565b6000610a14610a0f610a0a846109ef565b6107d0565b6106a7565b9050919050565b610a24816109f9565b82525050565b600082825260208201905092915050565b50565b6000610a4b600083610a2a565b9150610a5682610a3b565b600082019050919050565b600060a082019050610a7660008301876107a6565b610a8360208301866107a6565b610a90604083018561074a565b610a9d6060830184610a1b565b8181036080830152610aae81610a3e565b90509594505050505056fea2646970667358221220a62f5f3cc1ba5f2476b3e5182dda669afbbe9ed9e94028f4abbba1db2ada45e264736f6c63430008140033",
  "linkReferences": {},
  "deployedLinkReferences": {}
}