{
  "_format": "hh-sol-artifact-1",
  "contractName": "NFTMarketplace",
  "sourceName": "contracts/Marketplace.sol",
  "abi": [
    {
      "inputs": [
        {
          "internalType": "address",
          "name": "_nftContract",
          "type": "address"
        },
        {
          "internalType": "address",
          "name": "_paymentToken",
          "type": "address"
        }
      ],
      "stateMutability": "nonpayable",
      "type": "constructor"
    },
    {
      "inputs": [
        {
          "internalType": "address",
          "name": "owner",
          "type": "address"
        }
      ],
      "name": "OwnableInvalidOwner",
      "type": "error"
    },
    {
      "inputs": [
        {
          "internalType": "address",
          "name": "account",
          "type": "address"
        }
      ],
      "name": "OwnableUnauthorizedAccount",
      "type": "error"
    },
    {
      "inputs": [],
      "name": "ReentrancyGuardReentrantCall",
      "type": "error"
    },
    {
      "anonymous": false,
      "inputs": [
        {
          "indexed": false,
          "internalType": "uint256",
          "name": "modelId",
          "type": "uint256"
        },
        {
          "indexed": false,
          "internalType": "uint256",
          "name": "priceUSD",
          "type": "uint256"
        },
        {
          "indexed": false,
          "internalType": "address",
          "name": "associatedAddress",
          "type": "address"
        },
        {
          "indexed": false,
          "internalType": "uint256",
          "name": "royaltyFee",
          "type": "uint256"
        }
      ],
      "name": "ModelUpdated",
      "type": "event"
    },
    {
      "anonymous": false,
      "inputs": [
        {
          "indexed": true,
          "internalType": "address",
          "name": "seller",
          "type": "address"
        },
        {
          "indexed": true,
          "internalType": "uint256",
          "name": "tokenId",
          "type": "uint256"
        },
        {
          "indexed": false,
          "internalType": "uint256",
          "name": "price",
          "type": "uint256"
        }
      ],
      "name": "NFTListed",
      "type": "event"
    },
    {
      "anonymous": false,
      "inputs": [
        {
          "indexed": true,
          "internalType": "address",
          "name": "seller",
          "type": "address"
        },
        {
          "indexed": true,
          "internalType": "address",
          "name": "buyer",
          "type": "address"
        },
        {
          "indexed": true,
          "internalType": "uint256",
          "name": "tokenId",
          "type": "uint256"
        },
        {
          "indexed": false,
          "internalType": "uint256",
          "name": "price",
          "type": "uint256"
        }
      ],
      "name": "NFTSold",
      "type": "event"
    },
    {
      "anonymous": false,
      "inputs": [
        {
          "indexed": true,
          "internalType": "address",
          "name": "previousOwner",
          "type": "address"
        },
        {
          "indexed": true,
          "internalType": "address",
          "name": "newOwner",
          "type": "address"
        }
      ],
      "name": "OwnershipTransferred",
      "type": "event"
    },
    {
      "anonymous": false,
      "inputs": [
        {
          "indexed": true,
          "internalType": "address",
          "name": "buyer",
          "type": "address"
        },
        {
          "indexed": false,
          "internalType": "uint256",
          "name": "modelId",
          "type": "uint256"
        },
        {
          "indexed": false,
          "internalType": "uint256",
          "name": "subscriptionId",
          "type": "uint256"
        },
        {
          "indexed": false,
          "internalType": "uint256",
          "name": "tokenId",
          "type": "uint256"
        }
      ],
      "name": "SubscriptionPurchased",
      "type": "event"
    },
    {
      "inputs": [
        {
          "internalType": "uint256",
          "name": "tokenId",
          "type": "uint256"
        }
      ],
      "name": "buyNFT",
      "outputs": [],
      "stateMutability": "payable",
      "type": "function"
    },
    {
      "inputs": [
        {
          "internalType": "uint256",
          "name": "tokenId",
          "type": "uint256"
        }
      ],
      "name": "buyNFTWithUSDC",
      "outputs": [],
      "stateMutability": "nonpayable",
      "type": "function"
    },
    {
      "inputs": [
        {
          "internalType": "uint256",
          "name": "tokenId",
          "type": "uint256"
        },
        {
          "internalType": "uint256",
          "name": "price",
          "type": "uint256"
        }
      ],
      "name": "listNFT",
      "outputs": [],
      "stateMutability": "nonpayable",
      "type": "function"
    },
    {
      "inputs": [
        {
          "internalType": "uint256",
          "name": "",
          "type": "uint256"
        }
      ],
      "name": "listings",
      "outputs": [
        {
          "internalType": "uint256",
          "name": "price",
          "type": "uint256"
        },
        {
          "internalType": "address",
          "name": "seller",
          "type": "address"
        },
        {
          "internalType": "bool",
          "name": "isListed",
          "type": "bool"
        }
      ],
      "stateMutability": "view",
      "type": "function"
    },
    {
      "inputs": [
        {
          "internalType": "uint256",
          "name": "",
          "type": "uint256"
        }
      ],
      "name": "models",
      "outputs": [
        {
          "internalType": "uint256",
          "name": "priceUSD",
          "type": "uint256"
        },
        {
          "internalType": "address",
          "name": "associatedAddress",
          "type": "address"
        },
        {
          "internalType": "uint256",
          "name": "royaltyFees",
          "type": "uint256"
        }
      ],
      "stateMutability": "view",
      "type": "function"
    },
    {
      "inputs": [],
      "name": "owner",
      "outputs": [
        {
          "internalType": "address",
          "name": "",
          "type": "address"
        }
      ],
      "stateMutability": "view",
      "type": "function"
    },
    {
      "inputs": [],
      "name": "paymentToken",
      "outputs": [
        {
          "internalType": "contract IERC20",
          "name": "",
          "type": "address"
        }
      ],
      "stateMutability": "view",
      "type": "function"
    },
    {
      "inputs": [
        {
          "internalType": "uint256",
          "name": "modelId",
          "type": "uint256"
        },
        {
          "internalType": "uint256",
          "name": "subscriptionId",
          "type": "uint256"
        },
        {
          "internalType": "uint256",
          "name": "duration",
          "type": "uint256"
        }
      ],
      "name": "purchaseSubscription",
      "outputs": [],
      "stateMutability": "nonpayable",
      "type": "function"
    },
    {
      "inputs": [],
      "name": "renounceOwnership",
      "outputs": [],
      "stateMutability": "nonpayable",
      "type": "function"
    },
    {
      "inputs": [
        {
          "internalType": "address",
          "name": "newOwner",
          "type": "address"
        }
      ],
      "name": "transferOwnership",
      "outputs": [],
      "stateMutability": "nonpayable",
      "type": "function"
    },
    {
      "inputs": [
        {
          "internalType": "uint256[]",
          "name": "modelIds",
          "type": "uint256[]"
        },
        {
          "internalType": "uint256[]",
          "name": "pricesUSD",
          "type": "uint256[]"
        },
        {
          "internalType": "address[]",
          "name": "associatedAddresses",
          "type": "address[]"
        },
        {
          "internalType": "uint256[]",
          "name": "royaltyFees",
          "type": "uint256[]"
        }
      ],
      "name": "updateBatchModels",
      "outputs": [],
      "stateMutability": "nonpayable",
      "type": "function"
    },
    {
      "inputs": [
        {
          "internalType": "uint256",
          "name": "modelId",
          "type": "uint256"
        },
        {
          "internalType": "uint256",
          "name": "priceUSD",
          "type": "uint256"
        },
        {
          "internalType": "address",
          "name": "associatedAddress",
          "type": "address"
        },
        {
          "internalType": "uint256",
          "name": "royaltyFee",
          "type": "uint256"
        }
      ],
      "name": "updateModel",
      "outputs": [],
      "stateMutability": "nonpayable",
      "type": "function"
    },
    {
      "inputs": [
        {
          "internalType": "address",
          "name": "beneficiary",
          "type": "address"
        }
      ],
      "name": "withdrawPayments",
      "outputs": [],
      "stateMutability": "nonpayable",
      "type": "function"
    }
  ],
  "bytecode": "0x60806040523480156200001157600080fd5b5060405162002dc838038062002dc8833981810160405281019062000037919062000281565b336001600081905550600073ffffffffffffffffffffffffffffffffffffffff168173ffffffffffffffffffffffffffffffffffffffff1603620000b55760006040517f1e4fbdf7000000000000000000000000000000000000000000000000000000008152600401620000ac9190620002d9565b60405180910390fd5b620000c6816200015160201b60201c565b5081600260006101000a81548173ffffffffffffffffffffffffffffffffffffffff021916908373ffffffffffffffffffffffffffffffffffffffff16021790555080600360006101000a81548173ffffffffffffffffffffffffffffffffffffffff021916908373ffffffffffffffffffffffffffffffffffffffff1602179055505050620002f6565b6000600160009054906101000a900473ffffffffffffffffffffffffffffffffffffffff16905081600160006101000a81548173ffffffffffffffffffffffffffffffffffffffff021916908373ffffffffffffffffffffffffffffffffffffffff1602179055508173ffffffffffffffffffffffffffffffffffffffff168173ffffffffffffffffffffffffffffffffffffffff167f8be0079c531659141344cd1fd0a4f28419497f9722a3daafe3b4186f6b6457e060405160405180910390a35050565b600080fd5b600073ffffffffffffffffffffffffffffffffffffffff82169050919050565b600062000249826200021c565b9050919050565b6200025b816200023c565b81146200026757600080fd5b50565b6000815190506200027b8162000250565b92915050565b600080604083850312156200029b576200029a62000217565b5b6000620002ab858286016200026a565b9250506020620002be858286016200026a565b9150509250929050565b620002d3816200023c565b82525050565b6000602082019050620002f06000830184620002c8565b92915050565b612ac280620003066000396000f3fe6080604052600436106100c25760003560e01c80638da5cb5b1161007f578063a743d5ec11610059578063a743d5ec14610233578063bb289f1d1461025c578063de74e57b14610285578063f2fde38b146102c4576100c2565b80638da5cb5b146101b657806394383f14146101e15780639a76c81d1461020a576100c2565b80633013ce29146100c757806331b3eb94146100f257806351ed82881461011b57806362648767146101375780636a030ca914610160578063715018a61461019f575b600080fd5b3480156100d357600080fd5b506100dc6102ed565b6040516100e99190611c6c565b60405180910390f35b3480156100fe57600080fd5b5061011960048036038101906101149190611ccf565b610313565b005b61013560048036038101906101309190611d32565b6104e1565b005b34801561014357600080fd5b5061015e60048036038101906101599190611d5f565b61095f565b005b34801561016c57600080fd5b5061018760048036038101906101829190611d32565b610c7d565b60405161019693929190611dd0565b60405180910390f35b3480156101ab57600080fd5b506101b4610cc7565b005b3480156101c257600080fd5b506101cb610cdb565b6040516101d89190611e07565b60405180910390f35b3480156101ed57600080fd5b5061020860048036038101906102039190611e22565b610d05565b005b34801561021657600080fd5b50610231600480360381019061022c9190611f1d565b610fcf565b005b34801561023f57600080fd5b5061025a60048036038101906102559190612006565b611230565b005b34801561026857600080fd5b50610283600480360381019061027e9190611d32565b61131d565b005b34801561029157600080fd5b506102ac60048036038101906102a79190611d32565b61196b565b6040516102bb93929190612088565b60405180910390f35b3480156102d057600080fd5b506102eb60048036038101906102e69190611ccf565b6119c2565b005b600360009054906101000a900473ffffffffffffffffffffffffffffffffffffffff1681565b61031b611a48565b6000600360009054906101000a900473ffffffffffffffffffffffffffffffffffffffff1673ffffffffffffffffffffffffffffffffffffffff166370a08231306040518263ffffffff1660e01b81526004016103789190611e07565b602060405180830381865afa158015610395573d6000803e3d6000fd5b505050506040513d601f19601f820116820180604052508101906103b991906120d4565b9050600081116103fe576040517f08c379a00000000000000000000000000000000000000000000000000000000081526004016103f59061215e565b60405180910390fd5b600360009054906101000a900473ffffffffffffffffffffffffffffffffffffffff1673ffffffffffffffffffffffffffffffffffffffff1663a9059cbb83836040518363ffffffff1660e01b815260040161045b92919061217e565b6020604051808303816000875af115801561047a573d6000803e3d6000fd5b505050506040513d601f19601f8201168201806040525081019061049e91906121d3565b6104dd576040517f08c379a00000000000000000000000000000000000000000000000000000000081526004016104d49061224c565b60405180910390fd5b5050565b6104e9611acf565b60006004600083815260200190815260200160002090508060010160149054906101000a900460ff16610551576040517f08c379a0000000000000000000000000000000000000000000000000000000008152600401610548906122b8565b60405180910390fd5b8060000154341015610598576040517f08c379a000000000000000000000000000000000000000000000000000000000815260040161058f90612324565b60405180910390fd5b8060010160009054906101000a900473ffffffffffffffffffffffffffffffffffffffff1673ffffffffffffffffffffffffffffffffffffffff166108fc82600001549081150290604051600060405180830381858888f19350505050158015610606573d6000803e3d6000fd5b50600080600260009054906101000a900473ffffffffffffffffffffffffffffffffffffffff1673ffffffffffffffffffffffffffffffffffffffff16632a55205a8585600001546040518363ffffffff1660e01b815260040161066b929190612344565b6040805180830381865afa158015610687573d6000803e3d6000fd5b505050506040513d601f19601f820116820180604052508101906106ab9190612382565b91509150600081111561077e578173ffffffffffffffffffffffffffffffffffffffff166108fc829081150290604051600060405180830381858888f193505050501580156106fe573d6000803e3d6000fd5b508260010160009054906101000a900473ffffffffffffffffffffffffffffffffffffffff1673ffffffffffffffffffffffffffffffffffffffff166108fc82856000015461074d91906123f1565b9081150290604051600060405180830381858888f19350505050158015610778573d6000803e3d6000fd5b506107ee565b8260010160009054906101000a900473ffffffffffffffffffffffffffffffffffffffff1673ffffffffffffffffffffffffffffffffffffffff166108fc84600001549081150290604051600060405180830381858888f193505050501580156107ec573d6000803e3d6000fd5b505b600260009054906101000a900473ffffffffffffffffffffffffffffffffffffffff1673ffffffffffffffffffffffffffffffffffffffff1663f242432a8460010160009054906101000a900473ffffffffffffffffffffffffffffffffffffffff16338760016040518563ffffffff1660e01b81526004016108749493929190612497565b600060405180830381600087803b15801561088e57600080fd5b505af11580156108a2573d6000803e3d6000fd5b5050505060008360010160146101000a81548160ff021916908315150217905550833373ffffffffffffffffffffffffffffffffffffffff168460010160009054906101000a900473ffffffffffffffffffffffffffffffffffffffff1673ffffffffffffffffffffffffffffffffffffffff167ff6ccc0cf89c21c54724ea6ef2ec01da8fe33a1cebe06607e160fd78483eba302866000015460405161094991906124ef565b60405180910390a450505061095c611b15565b50565b610967611acf565b600060056000858152602001908152602001600020604051806060016040529081600082015481526020016001820160009054906101000a900473ffffffffffffffffffffffffffffffffffffffff1673ffffffffffffffffffffffffffffffffffffffff1673ffffffffffffffffffffffffffffffffffffffff1681526020016002820154815250509050600360009054906101000a900473ffffffffffffffffffffffffffffffffffffffff1673ffffffffffffffffffffffffffffffffffffffff166323b872dd333084600001516040518463ffffffff1660e01b8152600401610a569392919061250a565b6020604051808303816000875af1158015610a75573d6000803e3d6000fd5b505050506040513d601f19601f82011682018060405250810190610a9991906121d3565b610ad8576040517f08c379a0000000000000000000000000000000000000000000000000000000008152600401610acf9061258d565b60405180910390fd5b6000600260009054906101000a900473ffffffffffffffffffffffffffffffffffffffff1673ffffffffffffffffffffffffffffffffffffffff1663ab531efd86866040518363ffffffff1660e01b8152600401610b37929190612344565b602060405180830381865afa158015610b54573d6000803e3d6000fd5b505050506040513d601f19601f82011682018060405250810190610b7891906120d4565b9050600260009054906101000a900473ffffffffffffffffffffffffffffffffffffffff1673ffffffffffffffffffffffffffffffffffffffff166389c5b73a338787600188886040015189602001516040518863ffffffff1660e01b8152600401610bea97969594939291906125ad565b600060405180830381600087803b158015610c0457600080fd5b505af1158015610c18573d6000803e3d6000fd5b505050503373ffffffffffffffffffffffffffffffffffffffff167f64482b8b4ec00191fbaf536ab56bb397d8efc6d86b8c41ca712f144addc7a45a868684604051610c6693929190612630565b60405180910390a25050610c78611b15565b505050565b60056020528060005260406000206000915090508060000154908060010160009054906101000a900473ffffffffffffffffffffffffffffffffffffffff16908060020154905083565b610ccf611a48565b610cd96000611b1f565b565b6000600160009054906101000a900473ffffffffffffffffffffffffffffffffffffffff16905090565b6000600260009054906101000a900473ffffffffffffffffffffffffffffffffffffffff1673ffffffffffffffffffffffffffffffffffffffff1662fdd58e33856040518363ffffffff1660e01b8152600401610d6392919061217e565b602060405180830381865afa158015610d80573d6000803e3d6000fd5b505050506040513d601f19601f82011682018060405250810190610da491906120d4565b11610de4576040517f08c379a0000000000000000000000000000000000000000000000000000000008152600401610ddb906126b3565b60405180910390fd5b600260009054906101000a900473ffffffffffffffffffffffffffffffffffffffff1673ffffffffffffffffffffffffffffffffffffffff1663e985e9c533306040518363ffffffff1660e01b8152600401610e419291906126d3565b602060405180830381865afa158015610e5e573d6000803e3d6000fd5b505050506040513d601f19601f82011682018060405250810190610e8291906121d3565b610ec1576040517f08c379a0000000000000000000000000000000000000000000000000000000008152600401610eb89061276e565b60405180910390fd5b60405180606001604052808281526020013373ffffffffffffffffffffffffffffffffffffffff16815260200160011515815250600460008481526020019081526020016000206000820151816000015560208201518160010160006101000a81548173ffffffffffffffffffffffffffffffffffffffff021916908373ffffffffffffffffffffffffffffffffffffffff16021790555060408201518160010160146101000a81548160ff021916908315150217905550905050813373ffffffffffffffffffffffffffffffffffffffff167fbbf44e68296791df5535457da734bf1017c4b233a740af6d7a89b9f1af4ecb4283604051610fc391906124ef565b60405180910390a35050565b610fd7611a48565b8585905088889050148015610ff157508383905088889050145b801561100257508181905088889050145b611041576040517f08c379a0000000000000000000000000000000000000000000000000000000008152600401611038906127da565b60405180910390fd5b60005b8888905081101561122557604051806060016040528088888481811061106d5761106c6127fa565b5b90506020020135815260200186868481811061108c5761108b6127fa565b5b90506020020160208101906110a19190611ccf565b73ffffffffffffffffffffffffffffffffffffffff1681526020018484848181106110cf576110ce6127fa565b5b90506020020135815250600560008b8b858181106110f0576110ef6127fa565b5b9050602002013581526020019081526020016000206000820151816000015560208201518160010160006101000a81548173ffffffffffffffffffffffffffffffffffffffff021916908373ffffffffffffffffffffffffffffffffffffffff160217905550604082015181600201559050507f2a3dd0cde6f3b7aff0adcef0776135b5ba141ffbe42dd5a52c05f9e96f04dcac898983818110611197576111966127fa565b5b905060200201358888848181106111b1576111b06127fa565b5b905060200201358787858181106111cb576111ca6127fa565b5b90506020020160208101906111e09190611ccf565b8686868181106111f3576111f26127fa565b5b9050602002013560405161120a9493929190612829565b60405180910390a1808061121d9061286e565b915050611044565b505050505050505050565b611238611a48565b60405180606001604052808481526020018373ffffffffffffffffffffffffffffffffffffffff16815260200182815250600560008681526020019081526020016000206000820151816000015560208201518160010160006101000a81548173ffffffffffffffffffffffffffffffffffffffff021916908373ffffffffffffffffffffffffffffffffffffffff160217905550604082015181600201559050507f2a3dd0cde6f3b7aff0adcef0776135b5ba141ffbe42dd5a52c05f9e96f04dcac8484848460405161130f9493929190612829565b60405180910390a150505050565b611325611acf565b60006004600083815260200190815260200160002090508060010160149054906101000a900460ff1661138d576040517f08c379a0000000000000000000000000000000000000000000000000000000008152600401611384906122b8565b60405180910390fd5b8060000154600360009054906101000a900473ffffffffffffffffffffffffffffffffffffffff1673ffffffffffffffffffffffffffffffffffffffff166370a08231336040518263ffffffff1660e01b81526004016113ed9190611e07565b602060405180830381865afa15801561140a573d6000803e3d6000fd5b505050506040513d601f19601f8201168201806040525081019061142e91906120d4565b101561146f576040517f08c379a000000000000000000000000000000000000000000000000000000000815260040161146690612902565b60405180910390fd5b8060000154600360009054906101000a900473ffffffffffffffffffffffffffffffffffffffff1673ffffffffffffffffffffffffffffffffffffffff1663dd62ed3e33306040518363ffffffff1660e01b81526004016114d19291906126d3565b602060405180830381865afa1580156114ee573d6000803e3d6000fd5b505050506040513d601f19601f8201168201806040525081019061151291906120d4565b1015611553576040517f08c379a000000000000000000000000000000000000000000000000000000000815260040161154a90612994565b60405180910390fd5b600080600260009054906101000a900473ffffffffffffffffffffffffffffffffffffffff1673ffffffffffffffffffffffffffffffffffffffff16632a55205a8585600001546040518363ffffffff1660e01b81526004016115b7929190612344565b6040805180830381865afa1580156115d3573d6000803e3d6000fd5b505050506040513d601f19601f820116820180604052508101906115f79190612382565b9150915060008111156116e657600360009054906101000a900473ffffffffffffffffffffffffffffffffffffffff1673ffffffffffffffffffffffffffffffffffffffff166323b872dd3384846040518463ffffffff1660e01b81526004016116639392919061250a565b6020604051808303816000875af1158015611682573d6000803e3d6000fd5b505050506040513d601f19601f820116820180604052508101906116a691906121d3565b6116e5576040517f08c379a00000000000000000000000000000000000000000000000000000000081526004016116dc90612a00565b60405180910390fd5b5b600360009054906101000a900473ffffffffffffffffffffffffffffffffffffffff1673ffffffffffffffffffffffffffffffffffffffff166323b872dd338560010160009054906101000a900473ffffffffffffffffffffffffffffffffffffffff1684876000015461175a91906123f1565b6040518463ffffffff1660e01b81526004016117789392919061250a565b6020604051808303816000875af1158015611797573d6000803e3d6000fd5b505050506040513d601f19601f820116820180604052508101906117bb91906121d3565b6117fa576040517f08c379a00000000000000000000000000000000000000000000000000000000081526004016117f190612a6c565b60405180910390fd5b600260009054906101000a900473ffffffffffffffffffffffffffffffffffffffff1673ffffffffffffffffffffffffffffffffffffffff1663f242432a8460010160009054906101000a900473ffffffffffffffffffffffffffffffffffffffff16338760016040518563ffffffff1660e01b81526004016118809493929190612497565b600060405180830381600087803b15801561189a57600080fd5b505af11580156118ae573d6000803e3d6000fd5b5050505060008360010160146101000a81548160ff021916908315150217905550833373ffffffffffffffffffffffffffffffffffffffff168460010160009054906101000a900473ffffffffffffffffffffffffffffffffffffffff1673ffffffffffffffffffffffffffffffffffffffff167ff6ccc0cf89c21c54724ea6ef2ec01da8fe33a1cebe06607e160fd78483eba302866000015460405161195591906124ef565b60405180910390a4505050611968611b15565b50565b60046020528060005260406000206000915090508060000154908060010160009054906101000a900473ffffffffffffffffffffffffffffffffffffffff16908060010160149054906101000a900460ff16905083565b6119ca611a48565b600073ffffffffffffffffffffffffffffffffffffffff168173ffffffffffffffffffffffffffffffffffffffff1603611a3c5760006040517f1e4fbdf7000000000000000000000000000000000000000000000000000000008152600401611a339190611e07565b60405180910390fd5b611a4581611b1f565b50565b611a50611be5565b73ffffffffffffffffffffffffffffffffffffffff16611a6e610cdb565b73ffffffffffffffffffffffffffffffffffffffff1614611acd57611a91611be5565b6040517f118cdaa7000000000000000000000000000000000000000000000000000000008152600401611ac49190611e07565b60405180910390fd5b565b600260005403611b0b576040517f3ee5aeb500000000000000000000000000000000000000000000000000000000815260040160405180910390fd5b6002600081905550565b6001600081905550565b6000600160009054906101000a900473ffffffffffffffffffffffffffffffffffffffff16905081600160006101000a81548173ffffffffffffffffffffffffffffffffffffffff021916908373ffffffffffffffffffffffffffffffffffffffff1602179055508173ffffffffffffffffffffffffffffffffffffffff168173ffffffffffffffffffffffffffffffffffffffff167f8be0079c531659141344cd1fd0a4f28419497f9722a3daafe3b4186f6b6457e060405160405180910390a35050565b600033905090565b600073ffffffffffffffffffffffffffffffffffffffff82169050919050565b6000819050919050565b6000611c32611c2d611c2884611bed565b611c0d565b611bed565b9050919050565b6000611c4482611c17565b9050919050565b6000611c5682611c39565b9050919050565b611c6681611c4b565b82525050565b6000602082019050611c816000830184611c5d565b92915050565b600080fd5b600080fd5b6000611c9c82611bed565b9050919050565b611cac81611c91565b8114611cb757600080fd5b50565b600081359050611cc981611ca3565b92915050565b600060208284031215611ce557611ce4611c87565b5b6000611cf384828501611cba565b91505092915050565b6000819050919050565b611d0f81611cfc565b8114611d1a57600080fd5b50565b600081359050611d2c81611d06565b92915050565b600060208284031215611d4857611d47611c87565b5b6000611d5684828501611d1d565b91505092915050565b600080600060608486031215611d7857611d77611c87565b5b6000611d8686828701611d1d565b9350506020611d9786828701611d1d565b9250506040611da886828701611d1d565b9150509250925092565b611dbb81611cfc565b82525050565b611dca81611c91565b82525050565b6000606082019050611de56000830186611db2565b611df26020830185611dc1565b611dff6040830184611db2565b949350505050565b6000602082019050611e1c6000830184611dc1565b92915050565b60008060408385031215611e3957611e38611c87565b5b6000611e4785828601611d1d565b9250506020611e5885828601611d1d565b9150509250929050565b600080fd5b600080fd5b600080fd5b60008083601f840112611e8757611e86611e62565b5b8235905067ffffffffffffffff811115611ea457611ea3611e67565b5b602083019150836020820283011115611ec057611ebf611e6c565b5b9250929050565b60008083601f840112611edd57611edc611e62565b5b8235905067ffffffffffffffff811115611efa57611ef9611e67565b5b602083019150836020820283011115611f1657611f15611e6c565b5b9250929050565b6000806000806000806000806080898b031215611f3d57611f3c611c87565b5b600089013567ffffffffffffffff811115611f5b57611f5a611c8c565b5b611f678b828c01611e71565b9850985050602089013567ffffffffffffffff811115611f8a57611f89611c8c565b5b611f968b828c01611e71565b9650965050604089013567ffffffffffffffff811115611fb957611fb8611c8c565b5b611fc58b828c01611ec7565b9450945050606089013567ffffffffffffffff811115611fe857611fe7611c8c565b5b611ff48b828c01611e71565b92509250509295985092959890939650565b600080600080608085870312156120205761201f611c87565b5b600061202e87828801611d1d565b945050602061203f87828801611d1d565b935050604061205087828801611cba565b925050606061206187828801611d1d565b91505092959194509250565b60008115159050919050565b6120828161206d565b82525050565b600060608201905061209d6000830186611db2565b6120aa6020830185611dc1565b6120b76040830184612079565b949350505050565b6000815190506120ce81611d06565b92915050565b6000602082840312156120ea576120e9611c87565b5b60006120f8848285016120bf565b91505092915050565b600082825260208201905092915050565b7f4e6f2066756e647320617661696c61626c650000000000000000000000000000600082015250565b6000612148601283612101565b915061215382612112565b602082019050919050565b600060208201905081810360008301526121778161213b565b9050919050565b60006040820190506121936000830185611dc1565b6121a06020830184611db2565b9392505050565b6121b08161206d565b81146121bb57600080fd5b50565b6000815190506121cd816121a7565b92915050565b6000602082840312156121e9576121e8611c87565b5b60006121f7848285016121be565b91505092915050565b7f5769746864726177616c206661696c6564000000000000000000000000000000600082015250565b6000612236601183612101565b915061224182612200565b602082019050919050565b6000602082019050818103600083015261226581612229565b9050919050565b7f54686973204e4654206973206e6f7420666f722073616c650000000000000000600082015250565b60006122a2601883612101565b91506122ad8261226c565b602082019050919050565b600060208201905081810360008301526122d181612295565b9050919050565b7f496e73756666696369656e742066756e64732073656e74000000000000000000600082015250565b600061230e601783612101565b9150612319826122d8565b602082019050919050565b6000602082019050818103600083015261233d81612301565b9050919050565b60006040820190506123596000830185611db2565b6123666020830184611db2565b9392505050565b60008151905061237c81611ca3565b92915050565b6000806040838503121561239957612398611c87565b5b60006123a78582860161236d565b92505060206123b8858286016120bf565b9150509250929050565b7f4e487b7100000000000000000000000000000000000000000000000000000000600052601160045260246000fd5b60006123fc82611cfc565b915061240783611cfc565b925082820390508181111561241f5761241e6123c2565b5b92915050565b6000819050919050565b600061244a61244561244084612425565b611c0d565b611cfc565b9050919050565b61245a8161242f565b82525050565b600082825260208201905092915050565b50565b6000612481600083612460565b915061248c82612471565b600082019050919050565b600060a0820190506124ac6000830187611dc1565b6124b96020830186611dc1565b6124c66040830185611db2565b6124d36060830184612451565b81810360808301526124e481612474565b905095945050505050565b60006020820190506125046000830184611db2565b92915050565b600060608201905061251f6000830186611dc1565b61252c6020830185611dc1565b6125396040830184611db2565b949350505050565b7f5061796d656e74206661696c6564000000000000000000000000000000000000600082015250565b6000612577600e83612101565b915061258282612541565b602082019050919050565b600060208201905081810360008301526125a68161256a565b9050919050565b6000610100820190506125c3600083018a611dc1565b6125d06020830189611db2565b6125dd6040830188611db2565b6125ea6060830187612451565b6125f76080830186611db2565b61260460a0830185611db2565b61261160c0830184611dc1565b81810360e083015261262281612474565b905098975050505050505050565b60006060820190506126456000830186611db2565b6126526020830185611db2565b61265f6040830184611db2565b949350505050565b7f53656e646572206d757374206f776e20746865204e4654000000000000000000600082015250565b600061269d601783612101565b91506126a882612667565b602082019050919050565b600060208201905081810360008301526126cc81612690565b9050919050565b60006040820190506126e86000830185611dc1565b6126f56020830184611dc1565b9392505050565b7f436f6e7472616374206d75737420626520617070726f76656420746f206d616e60008201527f616765204e465400000000000000000000000000000000000000000000000000602082015250565b6000612758602783612101565b9150612763826126fc565b604082019050919050565b600060208201905081810360008301526127878161274b565b9050919050565b7f44617461206c656e677468206d69736d61746368000000000000000000000000600082015250565b60006127c4601483612101565b91506127cf8261278e565b602082019050919050565b600060208201905081810360008301526127f3816127b7565b9050919050565b7f4e487b7100000000000000000000000000000000000000000000000000000000600052603260045260246000fd5b600060808201905061283e6000830187611db2565b61284b6020830186611db2565b6128586040830185611dc1565b6128656060830184611db2565b95945050505050565b600061287982611cfc565b91507fffffffffffffffffffffffffffffffffffffffffffffffffffffffffffffffff82036128ab576128aa6123c2565b5b600182019050919050565b7f496e73756666696369656e742066756e64730000000000000000000000000000600082015250565b60006128ec601283612101565b91506128f7826128b6565b602082019050919050565b6000602082019050818103600083015261291b816128df565b9050919050565b7f4d61726b6574706c616365206e6f7420617574686f72697a656420746f20757360008201527f65207468652072657175697265642066756e6473000000000000000000000000602082015250565b600061297e603483612101565b915061298982612922565b604082019050919050565b600060208201905081810360008301526129ad81612971565b9050919050565b7f526f79616c7479207472616e73666572206661696c6564000000000000000000600082015250565b60006129ea601783612101565b91506129f5826129b4565b602082019050919050565b60006020820190508181036000830152612a19816129dd565b9050919050565b7f5061796d656e74207472616e73666572206661696c6564000000000000000000600082015250565b6000612a56601783612101565b9150612a6182612a20565b602082019050919050565b60006020820190508181036000830152612a8581612a49565b905091905056fea26469706673582212208b42147f40d8881d0d675f8d184380964bb78f3ef2fe8417035b80f6c4ed3ee164736f6c63430008140033",
  "linkReferences": {},
  "deployedLinkReferences": {}
}